:020000040800F2
:1000000000000220890100081D02000825020008E6
:100010002D020008350200083D0200080000000023
:100020000000000000000000000000004502000881
:100030004D0200080000000055020008910300086E
:100040001502000815020008150200081502000834
:100050001502000815020008150200081502000824
:100060001502000815020008150200081502000814
:100070001502000815020008150200081502000804
:1000800015020008150200081502000815020008F4
:1000900015020008150200081502000815020008E4
:1000A00015020008150200081502000815020008D4
:1000B00015020008150200081502000815020008C4
:1000C00015020008150200081502000815020008B4
:1000D00015020008E5170008111800083D1800086F
:1000E0001502000815020008150200081502000894
:1000F0001502000815020008150200081502000884
:100100001502000815020008150200081502000873
:100110006918000895180008150200081502000863
:100120001502000815020008150200081502000853
:100130001502000815020008150200081502000843
:100140001502000815020008150200081502000833
:10015000150200081502000815020008C118000861
:100160001502000815020008150200081502000813
:100170001502000815020008150200081502000803
:10018000150200081502000880B584B000AF0D4BC1
:10019000BB600D4B7B60BB683B6004E03B681A1D95
:1001A0003A6000221A607A683B689A42F6D801F0F9
:1001B00029FC00F059F8F86001F05AFCF86801F0E9
:1001C00075FC00BF240000209801002080B584B099
:1001D00000AF0D4BFB600D4BBB600D4B7B60BB68F4
:1001E0003B6007E03B681A1D3A60FA68111DF96030
:1001F00012681A607A683B689A42F3D801F05CFC96
:100200001037BD4680BD00BFCC250008000000208F
:100210002400002080B400AFFEE700BF80B400AF30
:10022000FEE700BF80B400AFFEE700BF80B400AFC0
:10023000FEE700BF80B400AFFEE700BF80B400AFB0
:10024000FEE700BF80B400AFFEE700BF80B400AFA0
:10025000FEE700BF80B400AFFEE700BF80B400AF90
:04026000FEE700BFF6
:04026400CD010008C0
:1002680080B582B000AF01F023FC00F0B1F800F0D7
:10027800D7F81B4801214FF4E13201F023F80F2091
:10028800202100F033F90020032100F01DFC15485F
:1002980000F0B2F9144800F0C5F94FF4805000F0AE
:1002A800DBF800F009FB0346002B17D00F4800F0DD
:1002B800E1FA0E4800F0A8FA4FF4804000F0CCF8BC
:1002C80000F03CFB0346FB71FB79FF2BF8D04FF4A1
:1002D800804000F0D1F800F06BFAE2E7E1E700BFF8
:1002E80000100140080000200000002054000020F9
:1002F80080B483B000AF03463960FB7197F90730CB
:10030800002B0BDA0D49FB7903F00F03043B3A6825
:10031800D2B21201D2B20B441A7609E0084997F911
:1003280007303A68D2B21201D2B20B4483F80023E4
:100338000C37BD465DF8047B704700BF00ED00E058
:1003480000E100E080B582B000AF78607B68013BD7
:10035800B3F1807F01D301230FE00A4B7A68013A99
:100368005A604FF0FF300F21FFF7C2FF054B002204
:100378009A60044B07221A60002318460837BD46C6
:1003880080BD00BF10E000E080B400AF0D4B1B68DB
:100398005A1C0C4B1A600C4B1B68002B04D00A4BE0
:1003A8001B685A1E084B1A60084B1B68002B04D0A8
:1003B800064B1B685A1E054B1A60BD465DF8047B48
:1003C800704700BF280000202C00002024000020D7
:1003D80080B500AF0F4B1B78002B00D018E0012030
:1003E80001F05AFD00BF01F069FD0346002BFAD069
:1003F800094B1A68094BA3FB02139B0C1846FFF71D
:10040800A1FF0346002B00D0FEE7024B01221A7021
:1004180080BD00BF300000201000002083DE1B4399
:1004280080B582B000AF0820012101F019FE4FF419
:1004380070433B600023BB7101233B710023FB71B8
:1004480003237B713B460348194601F035FC083706
:10045800BD4680BD000C024080B582B000AF0346A7
:10046800FB80FB880348194601F0B4FC0837BD46F9
:1004780080BD00BF000C024080B582B000AF0346CB
:10048800FB80FB880348194601F0B2FC0837BD46DB
:1004980080BD00BF000C024080B582B000AF0820CC
:1004A800012101F0DDFD01233B710023BB71002315
:1004B800FB7103237B7180233B603B460A48194646
:1004C80001F0FAFB4FF480733B603B46064819463F
:1004D80001F0F2FB044B4FF480725A83024B8022E6
:1004E8001A830837BD4680BD000C024080B582B033
:1004F80000AF02460B46FA71BB71FFF7CDFF3B48D0
:10050800012100F021FBBB79202B01D92023BB71ED
:10051800374BFA795A70364BBA791A70344B032232
:100528009A70334B0022DA7000F022FA304B5B7875
:10053800184600F0AFFA2E4B1B781120194600F030
:10054800D5F82B4B1B781220194600F0CFF8284B12
:100558001B781320194600F0C9F8254B1B78142086
:10056800194600F0C3F8224B1B781520194600F0F5
:10057800BDF81F4B1B781620194600F0B7F81C4B26
:10058800DA781B4B9B781046194600F09DFA00203C
:10059800082100F0ABF801203F2100F0A7F8022065
:1005A8003F2100F0A3F804204F2100F09FF81C2001
:1005B800002100F09BF80F4B80225A830B48E12161
:1005C80000F018FE0B4B80221A830A4B80225A83B4
:1005D8000648E22100F00EFE064B80221A8300F046
:1005E800E7F8012318460837BD4680BD003C0040A7
:1005F80094000020000C024080B582B000AF786003
:10060800074B4FF480725A830B207968052200F05B
:1006180091F8034B4FF480721A830837BD4680BDAA
:10062800000C024080B582B000AF78600A2079687B
:10063800052200F07FF810207968052200F07AF88A
:100648000837BD4680BD00BF80B584B000AF1346F3
:100658000246FA710A46BA717B71FB79184600F0B6
:1006680023F80346FB737B79002B09D0BB79012261
:1006780002FA03F3DAB2FB7B1343DBB2FB730AE043
:10068800BB79012202FA03F3DBB2DB43DAB2FB7B6C
:100698001340DBB2FB73FA79FB7B1046194600F076
:1006A80025F81037BD4680BD80B584B000AF03463D
:1006B800FB710C4B80225A83FB7903F01F03DBB2DA
:1006C8000948194600F096FD0748FF2100F092FD01
:1006D8000346FB73034B80221A83FB7B18461037B3
:1006E800BD4680BD000C0240003C004080B582B091
:1006F80000AF02460B46FA71BB710C4B80225A833D
:10070800FB7903F01F03DBB243F02003DBB2084898
:10071800194600F06FFDBB790548194600F06AFDDF
:10072800024B80221A830837BD4680BD000C024068
:10073800003C004080B582B000AF396013460246E5
:10074800FA71BB710D4B80225A83FB7903F01F03AA
:10075800DBB243F02003DBB20948194600F04AFD3A
:10076800BB799BB2064839681A4600F08FFD034BE7
:1007780080221A830837BD4680BD00BF000C0240A6
:10078800003C004080B500AF072004210122FFF79C
:100798005BFF072005210122FFF756FF07200621EE
:1007A8000122FFF751FF00200A21FFF79FFF80BDBC
:1007B80080B500AF124B80225A831248E22100F024
:1007C80019FD0F4B80221A83072004210122FFF70D
:1007D8003BFF072005210122FFF736FF07200621EE
:1007E8000122FFF731FF064B4FF480725A83002035
:1007F8000B21FFF77BFF024B4FF480721A8380BDF9
:10080800000C0240003C004080B584B000AF786026
:10081800154B1B78FB73154B4FF480725A83FFF707
:10082800B1FF124B80225A831148E12100F0E2FC0B
:100838000E4B80221A830D4B80225A830C48A0212C
:1008480000F0D8FCFB7B9BB2094879681A4600F097
:100858001DFD064B80221A83044B4FF480721A83C5
:100868001037BD4680BD00BF94000020000C024038
:10087800003C004080B582B000AF78600B4B80220E
:100888005A830B48612100F0B5FC0A4B1B780848D5
:1008980079687A6800F0D8FC044B80221A83072014
:1008A8004021FFF723FF0837BD4680BD000C0240FA
:1008B800003C00409400002080B582B000AF00F0FA
:1008C80025F80346FB71FB7903F04003002B01D0A8
:1008D800012307E000F00AF80346002B14BF0023A9
:1008E8000123DBB218460837BD4680BD80B582B00B
:1008F80000AF1720FFF7D8FE0346FB71FB7903F022
:100908000103DBB218460837BD4680BD80B582B00A
:1009180000AF084B80225A830748FF2100F06AFC89
:100928000346FB71034B80221A83FB79184608376C
:10093800BD4680BD000C0240003C004080B582B03E
:1009480000AFFFF7E3FF0346FB71FB7903F02003D9
:10095800002B01D0012307E0FB7903F01003002BE3
:1009680001D0002300E0FF2318460837BD4680BDAC
:1009780080B582B000AF00200821FFF7B7FE012044
:100988003F21FFF7B3FE02200321FFF7AFFE03204C
:100998000321FFF7ABFE04200321FFF7A7FE052084
:1009A8000221FFF7A3FE06200E21FFF79FFE072076
:1009B8000E21FFF79BFE08200021FFF797FE092074
:1009C8000021FFF793FEE7233B70E7237B70E723C3
:1009D800BB70E723FB70E7233B713B460A201946AF
:1009E8000522FFF7A7FEC2233B70C2237B70C223F8
:1009F800BB70C223FB70C2233B713B460B201946D8
:100A08000522FFF797FE0C20C321FFF76FFE0D208C
:100A1800C421FFF76BFE0E20C521FFF767FE0F20EC
:100A2800C621FFF763FEE7233B70E7237B70E723CC
:100A3800BB70E723FB70E7233B713B461020194648
:100A48000522FFF777FE11200021FFF74FFE122045
:100A58000021FFF74BFE13200021FFF747FE14206B
:100A68000021FFF743FE15200021FFF73FFE162067
:100A78000021FFF73BFE17201121FFF737FE1C204E
:100A88000021FFF733FE1D200021FFF72FFE083756
:100A9800BD4680BD80B582B000AF0346FB71FB79CF
:100AA8007D2B0CD8074B5B78FA799A4207D0054B17
:100AB800FA795A70FB7905201946FFF717FE0837AF
:100AC800BD4680BD9400002080B584B000AF0246CA
:100AD8000B46FA71BB710023FB731A4BFA79DA7073
:100AE800184BBA799A70FB79002B04D1FB7B43F041
:100AF8000803FB7306E0FB79022B03D1FB7B43F071
:100B08002003FB73BB79032B04D1FB7B43F0060363
:100B1800FB730EE0BB79022B04D1FB7B43F004038B
:100B2800FB7306E0BB79012B03D1FB7B43F0020387
:100B3800FB73FB7B06201946FFF7D8FD1037BD462F
:100B480080BD00BF9400002080B582B000AF7860FF
:100B58000B46FB707A681B4B9A4204D1FB78184607
:100B680000F03CF82BE07A68174B9A4204D1FB78E6
:100B7800184600F0B1F822E07A68144B9A4204D182
:100B8800FB78184600F056F919E07A68104B9A423B
:100B980004D1FB78184600F0CBF910E07A680D4BC9
:100BA8009A4204D1FB78184600F03EFA07E07A68CA
:100BB800094B9A4203D1FB78184600F0C1FA08376E
:100BC800BD4680BD0030014000380040003C004078
:100BD80000340140005001400054014080B58AB003
:100BE80000AF0346FB71002387F82630002387F8FF
:100BF8002730032387F82530022387F82430FB7930
:100C0800002B1BD10120012101F02AFAE0233B62CD
:100C180007F120032D48194601F04EF82B4805210D
:100C2800052201F0F3F829480621052201F0EEF823
:100C380026480721052201F0E9F81DE0FB79012B80
:100C48001AD10220012101F00BFA38233B6207F187
:100C580020031F48194601F02FF81D4803210522DB
:100C680001F0D4F81A480421052201F0CFF81848F9
:100C78000521052201F0CAF84FF48050012101F046
:100C88002BFA07F10C03184601F0C2FA20233B8324
:100C980000233B820023BB8100237B834FF48273B4
:100CA800FB8100237B820023BB824FF40073FB820D
:100CB80007F10C030748194601F066FA05480121B7
:100CC80001F0CAFA2837BD4680BD00BF00000240C7
:100CD800000402400030014080B58AB000AF0346EE
:100CE800FB71002387F82630012387F82730032378
:100CF80087F82530022387F82430FB79002B28D188
:100D08000220012101F0ACF90420012101F0A8F929
:100D18000C233B6207F120034248194600F0CCFF40
:100D28004FF480633B6207F120033F48194600F007
:100D3800C3FF3C480221052201F068F83948032125
:100D4800052201F063F838480A21052201F05EF80F
:100D58003EE0FB79012B1CD10220012101F080F932
:100D68004FF460433B6207F120032F48194600F017
:100D7800A3FF2D480D21052201F048F82A480E212D
:100D8800052201F043F828480F21052201F03EF81A
:100D98001EE0FB79022B1BD14FF48070012101F07A
:100DA8005FF90D233B6207F120031F48194600F045
:100DB80083FF1E480021052201F028F81B48022164
:100DC800052201F023F819480321052201F01EF835
:100DD8004FF48040012101F061F907F10C03184636
:100DE80001F016FA20233B8300233B820023BB81BA
:100DF80000237B834FF48273FB8100237B820023D3
:100E0800BB824FF40073FB8207F10C0308481946B4
:100E180001F0BAF90648012101F01EFA2837BD464B
:100E280080BD00BF000802400004024000200240CC
:100E38000038004080B58AB000AF0346FB7100233C
:100E480087F82630002387F82730032387F82530D2
:100E5800022387F82430FB79002B1BD102200121C3
:100E680001F0FEF838233B6207F120032D481946AC
:100E780000F022FF2B480321062200F0C7FF294873
:100E88000421062200F0C2FF26480521062200F0B0
:100E9800BDFF1EE0FB79012B1BD10420012101F0CD
:100EA800DFF84FF4E0533B6207F120031E48194670
:100EB80000F002FF1C480A21062200F0A7FF1A488A
:100EC8000B21062200F0A2FF17480C21062200F091
:100ED8009DFF4FF40040012101F0E0F807F10C03F9
:100EE800184601F095F920233B8300233B82002319
:100EF800BB8100237B834FF48273FB8100237B82B9
:100F08000023BB824FF40073FB8207F10C030748F0
:100F1800194601F039F90548012101F09DF92837F2
:100F2800BD4680BD0004024000080240003C00406D
:100F380080B58AB000AF0346FB71002387F82630DE
:100F4800002387F82730032387F82530022387F802
:100F58002430FB79002B1BD11020012101F080F8EF
:100F680064233B6207F120032D48194600F0A4FED4
:100F78002B480221052200F049FF294805210522B6
:100F880000F044FF26480621052200F03FFF1EE03E
:100F9800FB79012B1BD11020012101F061F84FF4DE
:100FA800E0433B6207F120031D48194600F084FE28
:100FB8001B480C21052200F029FF19480D210522A4
:100FC80000F024FF16480E21052200F01FFF4FF401
:100FD8000050012101F080F807F10C03184601F0D8
:100FE80017F920233B8300233B820023BB81002386
:100FF8007B834FF48273FB8100237B820023BB82B7
:101008004FF40073FB8207F10C030648194601F000
:10101800BBF80448012101F01FF92837BD4680BDFF
:10102800001002400034014080B58AB000AF03468A
:10103800FB71002387F82630002387F82730032325
:1010480087F82530022387F82430FB79002B1CD140
:101058002020012101F004F84FF460733B6207F18E
:1010680020033448194600F027FE3248072105229C
:1010780000F0CCFE2F480821052200F0C7FE2D48BD
:101088000921052200F0C2FE2AE0FB79012B27D1B5
:101098002020012100F0E4FF8020012100F0E0FF82
:1010A800C0233B6207F120032248194600F004FEE2
:1010B8004FF400633B6207F120031E48194600F015
:1010C800FBFD1C480B21052200F0A0FE1A48062152
:1010D800052200F09BFE18480721052200F096FE25
:1010E8004FF48010012100F0F7FF07F10C031846B8
:1010F80001F08EF820233B8300233B820023BB8131
:1011080000237B834FF48273FB8100237B820023BF
:10111800BB824FF40073FB8207F10C0307481946A2
:1011280001F032F80548012101F096F82837BD464C
:1011380080BD00BF00140240001C02400050014066
:1011480080B58AB000AF0346FB714020012100F052
:1011580087FF002387F82630002387F827300323EA
:1011680087F82530022387F824304FF4E0433B62A8
:1011780007F120031D48194600F09EFD1B480D216C
:10118800052200F043FE19480C21052200F03EFE1E
:1011980016480E21052200F039FE4FF400100121F7
:1011A80000F09AFF07F10C03184601F031F82023EC
:1011B8003B8300233B820023BB8100237B834FF4C6
:1011C8008273FB8100237B820023BB824FF4007370
:1011D800FB8207F10C030648194600F0D5FF0448C6
:1011E800012101F039F82837BD4680BD00180240BA
:1011F8000054014080B582B000AF78600B46FB70A8
:10120800FB789AB27B689A8100BF7868022101F066
:1012180043F80346002BF8D000BF7868012101F09D
:101228003BF80346002BF8D000BF7868802101F016
:1012380033F80346002BF8D17B689B899BB2DBB25D
:1012480018460837BD4680BD90B587B000AFF86036
:10125800B9607A607B800023FB750FE0FB7D7A68BC
:10126800D418FB7DBA6813441B78F8681946FFF751
:10127800C1FF03462370FB7D0133FB75FB7D9BB2E9
:101288007A889A42EAD81C37BD4690BD80B586B0A8
:1012980000AFF860B9601346FB800023FB820AE0C8
:1012A800FB8ABA6813441B78F8681946FFF7A2FF4F
:1012B800FB8A0133FB82FA8AFB889A42F0D31837FB
:1012C800BD4680BD80B58AB000AFF8600B467A6035
:1012D800FB727B68BB61FA684B4B9A420FD1FB7A71
:1012E800184600F09DF825233B750023BB840C238A
:1012F8007B8400233B840023FB830023BB83FA68A1
:10130800424B9A420FD1FB7A184600F0D5F82623B3
:101318003B750023BB840C237B8400233B84002380
:10132800FB830023BB83FA68394B9A420FD1FB7ABF
:10133800184600F00DF927233B750023BB840C23C6
:101348007B8400233B840023FB830023BB83FA6850
:10135800304B9A420FD1FB7A184600F065F93423D6
:101368003B750023BB840C237B8400233B84002330
:10137800FB830023BB83FA68274B9A420FD1FB7A81
:10138800184600F09FF935233B750023BB840C23D6
:101398007B8400233B840023FB830023BB83FA6800
:1013A8001E4B9A420FD1FB7A184600F0CBF947231F
:1013B8003B750023BB840C237B8400233B840023E0
:1013C800FB830023BB8307F11803F868194600F074
:1013D8007FFFF868012101F035F8F86840F22551DF
:1013E800012201F04FF80123FB7500237B75F86893
:1013F80000F0B8FA0346BB7507F11403184600F06D
:10140800FDFB2837BD4680BD001001400044004068
:1014180000480040004C00400050004000140140CB
:1014280080B584B000AF0346FB711020012100F0A5
:1014380053FE02233B730023BB730123FB73032377
:101448007B73FB79002B17D10120012100F008FEE6
:1014580017480921072200F0D9FC15480A2107225C
:1014680000F0D4FC4FF4C063BB6007F108031048D8
:10147800194600F021FC18E0FB79012B15D1022058
:10148800012100F0EDFD0B480621072200F0BEFC0B
:1014980008480721072200F0B9FCC023BB6007F108
:1014A80008030448194600F007FC1037BD4680BD04
:1014B800000002400004024080B584B000AF03463B
:1014C800FB714FF40030012100F0E8FD02233B736B
:1014D8000023BB730123FB7303237B73FB79002B6E
:1014E80016D10120012100F0BBFD17480221072277
:1014F80000F08CFC14480321072200F087FC0C2321
:10150800BB6007F108031048194600F0D5FB18E046
:10151800FB79012B15D10820012100F0A1FD0B4812
:101528000521072200F072FC08480621072200F076
:101538006DFC6023BB6007F108030448194600F0FE
:10154800BBFB1037BD4680BD00000240000C0240C6
:1015580080B584B000AF0346FB714FF480200121B1
:1015680000F09CFD02233B730023BB730123FB7334
:1015780003237B73FB79002B17D10220012100F094
:101588006FFD26480A21072200F040FC23480B2162
:10159800072200F03BFC4FF44063BB6007F10803EF
:1015A8001E48194600F088FB34E0FB79012B17D15F
:1015B8000420012100F054FD19480A21072200F0F7
:1015C80025FC17480B21072200F020FC4FF440634C
:1015D800BB6007F108031248194600F06DFB19E0DB
:1015E800FB79022B16D10820012100F039FD0D48A6
:1015F8000821072200F00AFC0A480921072200F006
:1016080005FC4FF44073BB6007F108030548194611
:1016180000F052FB1037BD4680BD00BF00040240F9
:1016280000080240000C024080B584B000AF0346B9
:10163800FB714FF40020012100F030FD02233B73C1
:101648000023BB730123FB7303237B73FB79002BFC
:1016580016D10120012100F003FD184800210822BD
:1016680000F0D4FB15480121082200F0CFFB03232A
:10167800BB6007F108031148194600F01DFB19E08B
:10168800FB79012B16D10420012100F0E9FC0C485C
:101698000A21082200F0BAFB09480B21082200F0B1
:1016A800B5FB4FF44063BB6007F1080304481946D3
:1016B80000F002FB1037BD4680BD00BF00000240AD
:1016C8000008024080B584B000AF0346FB714FF4B8
:1016D8008010012100F0E2FC02233B730023BB735E
:1016E8000123FB7303237B73FB79002B22D1042096
:1016F800012100F0B5FC0820012100F0B1FC0F48E1
:101708000C21082200F082FB0D480221082200F07B
:101718007DFB4FF48053BB6007F108030748194667
:1017280000F0CAFA0423BB6007F10803044819460D
:1017380000F0C2FA1037BD4680BD00BF0008024065
:10174800000C024080B584B000AF0346FB71202036
:10175800012100F0C1FC02233B730023BB7301236A
:10176800FB7303237B73FB79002B16D10420012123
:1017780000F076FC17480621082200F047FB1548C0
:101788000721082200F042FBC023BB6007F10803D1
:101798001048194600F090FA19E0FB79012B16D190
:1017A8004020012100F05CFC0B480E21082200F0CB
:1017B8002DFB09480921082200F028FB4FF4844337
:1017C800BB6007F108030448194600F075FA1037A2
:1017D800BD4680BD000802400018024080B500AF39
:1017E800084840F2255100F095FE0346002B07D02B
:1017F800044B9B889BB2DBB20020194600F072F8BC
:1018080080BD00BF0010014080B500AF084840F21D
:10181800255100F07FFE0346002B07D0044B9B8820
:101828009BB2DBB20120194600F05CF880BD00BF16
:101838000044004080B500AF084840F2255100F050
:1018480069FE0346002B07D0044B9B889BB2DBB292
:101858000220194600F046F880BD00BF004800404D
:1018680080B500AF084840F2255100F053FE03460A
:10187800002B07D0044B9B889BB2DBB20320194690
:1018880000F030F880BD00BF004C004080B500AFCC
:10189800084840F2255100F03DFE0346002B07D0D2
:1018A800044B9B889BB2DBB20420194600F01AF85F
:1018B80080BD00BF0050004080B500AF084840F22E
:1018C800255100F027FE0346002B07D0044B9B88C8
:1018D8009BB2DBB20520194600F004F880BD00BFBA
:1018E8000014014080B483B000AF02460B46FA7181
:1018F800BB71FA79184B33F812301F2B27D8FA79B5
:10190800164B33F812301F2B04D9FA79134B0021E8
:1019180023F81210F879FA79104B33F81230BA79A3
:101928000F49400103440B441A70FB790B4A32F803
:101938001320013291B2094A22F81310FB79064AA2
:1019480032F81320013291B2034A22F813100C37EF
:10195800BD465DF8047B7047440000203400002039
:101968009800002080B483B000AF78607A681B4B81
:101978009A4201D100232AE07A68194B9A4201D190
:10198800012324E07A68174B9A4201D102231EE012
:101998007A68154B9A4201D1032318E07A68134BF1
:1019A8009A4201D1042312E07A68114B9A4201D17C
:1019B80005230CE07A680F4B9A4201D1062306E012
:1019C8007A680D4B9A4201D1072300E0002318469C
:1019D8000C37BD465DF8047B704700BF001001401E
:1019E8000044004000480040004C004000500040C7
:1019F8000014014000780040007C004080B582B0AF
:101A080000AF154A154BD31A9B103B6000237B602F
:101A180007E0124B7A6853F8223098477B68013305
:101A28007B607A683B689A42F3D30D4A0D4BD31A10
:101A38009B103B6000237B6007E00A4B7A6853F8F1
:101A4800223098477B6801337B607A683B689A420A
:101A5800F3D30837BD4680BD680200086402000859
:101A6800680200086802000880B582B000AF0B4A1F
:101A78000B4BD31A9B103B603B687B6008E07B688C
:101A88005A1E074B53F8223098477B68013B7B600E
:101A98007B68002BF3D10837BD4680BD680200087B
:101AA8006802000880B483B000AF7860FEE700BF2A
:101AB80080B500AF114B114A126842F001021A605A
:101AC8000E4B00229A600D4A0C4B1B6823F084735E
:101AD80023F480331360094B094A5A60074B074ABD
:101AE800126822F480221A60044B0022DA6000F0A7
:101AF8000BF8044B4FF000629A6080BD003802403A
:101B08001030002400ED00E080B483B000AF002363
:101B18007B6000233B60354B344A126842F48032C4
:101B28001A60324B1B6803F400333B607B68013357
:101B38007B603B68002B03D17B68B3F5A04FF0D1E5
:101B48002A4B1B6803F40033002B02D001233B60AF
:101B580001E000233B603B68012B42D1234B234A21
:101B6800126C42F080521A64214B214A126842F4E6
:101B780040421A601D4B1D4A92689A601B4B1B4AD3
:101B8800926842F400429A60184B184A926842F4EC
:101B9800A0529A60154B174A5A60144B134A1268A0
:101BA80042F080721A6000BF104B1B6803F000738C
:101BB800002BF9D0104B40F205721A600B4B0B4A00
:101BC800926822F003029A60084B084A926842F031
:101BD80002029A6000BF054B9B6803F00C03082BB8
:101BE800F9D10C37BD465DF8047B704700380240D8
:101BF8000070004008544007003C024080B485B0A3
:101C080000AF78600023FB730023BB730F237B7343
:101C18007B68DB78002B37D0254BDB68DB4303F48C
:101C2800E0631B0AFB73FB7BC3F10403BB737A7B82
:101C3800FB7B42FA03F37B737B685B781A46BB7BBA
:101C480002FA03F3FB737B689A787B7B1340DAB262
:101C5800FB7B1343FB73FB7B1B01FB73154A7B6800
:101C68001B781344FA7B83F80023124B7A681278A6
:101C78005209D2B27968097801F01F01012000FAEF
:101C880001F143F822100EE00A4B7A6812785209E3
:101C9800D2B27968097801F01F01012000FA01F138
:101CA800203243F822101437BD465DF8047B704794
:101CB80000ED00E000E100E080B487B000AF78609C
:101CC800396000237B6100233B610023FB60002314
:101CD8007B6176E07B69012202FA03F33B613B6892
:101CE8001A683B691340FB60FA683B699A4265D100
:101CF8007B681A687B695B00032101FA03F3DB4305
:101D08001A407B681A607B681A683B681B79194619
:101D18007B695B0001FA03F31A437B681A603B682E
:101D28001B79012B03D03B681B79022B2ED17B68D2
:101D38009A687B695B00032101FA03F3DB431A40CD
:101D48007B689A607B689A683B685B7919467B690F
:101D58005B0001FA03F31A437B689A607B685A6850
:101D68007B699BB2012101FA03F3DB431A407B68CC
:101D78005A607B685A683B689B7919467B699BB2B5
:101D880001FA03F39BB21A437B685A607B68DA68EE
:101D98007B699BB25B00032101FA03F3DB431A4022
:101DA8007B68DA607B68DA683B68DB7919467B69AF
:101DB8005B0001FA03F31A437B68DA607B6901333D
:101DC8007B617B690F2B85D91C37BD465DF8047B89
:101DD800704700BF80B483B000AF78600B467B804B
:101DE8007B687A881A830C37BD465DF8047B704798
:101DF80080B483B000AF78600B467B807B687A88BC
:101E08005A830C37BD465DF8047B704780B485B0B3
:101E180000AF786013460A467A807B700023FB6027
:101E28000023BB607A787B8803F007039B0002FAE3
:101E380003F3FB607B88DB089BB21A467B88DB08D0
:101E48009BB219467B68083153F821107B8803F050
:101E580007039B000F2000FA03F3DB4319407B685C
:101E6800083243F822107B88DB089BB21A467B684D
:101E7800083253F82220FB681343BB607B88DB08D9
:101E88009BB21A467B680832B96843F822101437A7
:101E9800BD465DF8047B704780B483B000AF03464D
:101EA800FB71054B00221A70034BFA791A700C3734
:101EB800BD465DF8047B70470238024080B582B0A9
:101EC80000AF00233B600023FB710023BB7131206E
:101ED80000F020F90346BB713B6801333B603B6867
:101EE800B3F5A04F02D0BB79002BF0D0312000F021
:101EF80011F90346002B02D00123FB7101E00023F6
:101F0800FB71FB7918460837BD4680BD80B489B09F
:101F180000AF78600023BB6100237B610023FB6175
:101F280002233B610023FB600223BB60484B9B6894
:101F380003F00C03BB61BB69042B07D0082B09D045
:101F4800002B3FD17B68434A1A603FE07B68424AD6
:101F58001A603BE03E4B5B6803F480039B0DFB601B
:101F68003B4B5B6803F03F03BB60FB68002B0DD065
:101F7800394ABB68B2FBF3F2354B596847F6C07370
:101F88000B409B0903FB02F3FB610CE0314ABB6881
:101F9800B2FBF3F22E4B596847F6C0730B409B090E
:101FA80003FB02F3FB612A4B5B6803F440331B0C11
:101FB80001335B003B61FA693B69B2FBF3F27B6872
:101FC8001A6003E07B68234A1A6000BF204B9B68B5
:101FD80003F0F003BB61BB691B09BB611F4ABB6906
:101FE80013441B78DBB27B617B681A687B69DA4033
:101FF8007B685A60164B9B6803F4E053BB61BB696E
:102008009B0ABB61154ABB6913441B78DBB27B6131
:102018007B685A687B69DA407B689A600C4B9B68DE
:1020280003F46043BB61BB695B0BBB610B4ABB69D3
:1020380013441B78DBB27B617B685A687B69DA40A2
:102048007B68DA602437BD465DF8047B704700BFC3
:10205800003802400024F40000127A001400002026
:1020680080B483B000AF78600B46FB70FB78002B20
:1020780006D0094B084A116B7A680A431A6306E0CE
:10208800054B054A116B7A68D2430A401A630C372C
:10209800BD465DF8047B70470038024080B483B0C9
:1020A80000AF78600B46FB70FB78002B06D0094B1D
:1020B800084A116C7A680A431A6406E0054B054A17
:1020C800116C7A68D2430A401A640C37BD465DF831
:1020D800047B70470038024080B483B000AF78605A
:1020E8000B46FB70FB78002B06D0094B084A516C55
:1020F8007A680A435A6406E0054B054A516C7A68C7
:10210800D2430A405A640C37BD465DF8047B7047D9
:102118000038024080B487B000AF0346FB7100234B
:10212800FB6000237B610023FB74FB795B09DBB256
:10213800FB60FB68012B03D1124B1B687B6109E034
:10214800FB68022B03D10F4B1B6F7B6102E00D4B29
:102158005B6F7B61FB7903F01F03FB60FB687A69A7
:1021680022FA03F303F00103002B02D00123FB74CE
:1021780001E00023FB74FB7C18461C37BD465DF864
:10218800047B70470038024080B485B000AF7860A7
:1021980039600023FB817B681B88FB81FB8903F482
:1021A8004153FB813B681A883B685B8813439AB2AA
:1021B8003B689B8813439AB23B68DB8813439AB207
:1021C8003B681B8913439AB23B685B8913439AB2F5
:1021D8003B689B8913439AB23B68DB8913439AB2E5
:1021E800FB891343FB817B68FA891A807B689B8B88
:1021F8009BB223F400639AB27B689A833B681A8A7D
:102208007B681A821437BD465DF8047B704700BFAF
:1022180080B483B000AF78607B6800221A807B6846
:1022280000225A807B6800229A807B680022DA802C
:102238007B6800221A817B6800225A817B68002211
:102248009A817B680022DA817B6807221A820C3720
:10225800BD465DF8047B704780B483B000AF7860FA
:102268000B46FB70FB78002B08D07B681B889BB261
:1022780043F040039AB27B681A8007E07B681B88AA
:102288009BB223F040039AB27B681A800C37BD4694
:102298005DF8047B704700BF80B485B000AF7860FC
:1022A8000B467B800023FB737B681B899AB27B8873
:1022B80013409BB2002B02D00123FB7301E00023E3
:1022C800FB73FB7B18461437BD465DF8047B7047EB
:1022D80080B58AB000AF7860396000237B62002344
:1022E8003B620023FB610023BB617B681B8A9BB2B6
:1022F8007B627B6A23F440537B623B68DB887A6AA3
:1023080013437B627B6A9AB27B681A827B689B89DB
:102318009BB27B627B6A23F4B05323F00C037B628D
:102328003B689A883B681B8913439AB23B685B8970
:1023380013439BB27A6A13437B627B6A9AB27B68C7
:102348009A817B689B8A9BB27B627B6A23F4407389
:102358007B623B689B897A6A13437B627B6A9AB289
:102368007B689A8207F108031846FFF7CFFD7A6861
:10237800314B9A4203D07A68304B9A4202D17B693A
:102388003B6201E03B693B627B689B899BB29BB2E5
:102398001BB2002B0CDA3A6A13469B0013449A00CE
:1023A8001A443B681B685B00B2FBF3F3FB610BE06C
:1023B8003A6A13469B0013449A001A443B681B6808
:1023C8009B00B2FBF3F3FB61FA691D4BA3FB0213FD
:1023D8005B091B017B627B6A1B09642202FB03F316
:1023E800FA69D31ABB617B689B899BB29BB21BB20B
:1023F800002B0DDABB69DB0003F13202104BA3FBA3
:1024080002135B0903F007037A6A13437B620CE04B
:10241800BB691B0103F13202094BA3FB02135B09E1
:1024280003F00F037A6A13437B627B6A9AB27B6874
:102438001A812837BD4680BD0010014000140140B4
:102448001F85EB5180B483B000AF78600B46FB70FA
:10245800FB78002B08D07B689B899BB243F4005320
:102468009AB27B689A8107E07B689B899BB223F4C8
:1024780000539AB27B689A810C37BD465DF8047B9D
:10248800704700BF80B487B000AF786013460A4633
:102498007A807B7000233B610023FB600023BB60D4
:1024A80000237B617B687B617B88DBB25B09DBB2E5
:1024B8003B617B8803F01F03FB60FB68012202FA83
:1024C80003F3BB603B69012B03D17B690C337B6150
:1024D80009E03B69022B03D17B6910337B6102E081
:1024E8007B6914337B617B78002B06D07B697A6922
:1024F8001168BA680A431A6006E07B697A6911684C
:10250800BA68D2430A401A601C37BD465DF8047B9E
:10251800704700BF80B487B000AF78600B467B80FF
:102528000023FB6000237B610023BB600023FB7456
:102538007B88DBB25B09DBB2BB607B8803F01F03DF
:102548007B617B69012202FA03F37B61BB68012B83
:1025580006D17B689B899BB27A6913407B610FE047
:10256800BB68022B06D17B681B8A9BB27A69134031
:102578007B6105E07B689B8A9BB27A6913407B612B
:102588007B881B0A9BB2FB60FB68012202FA03F3FB
:10259800FB607B681B889BB2FA681340FB607B6911
:1025A800002B05D0FB68002B02D00123FB7401E04F
:1025B8000023FB74FB7C18461C37BD465DF8047B82
:0425C800704700BF99
:1025CC00E7E7E7E7E70000007E7E7E7E7E00000006
:1025DC00007A030A00000000010203040102030454
:0425EC0006070809CD
:040000050800018965
:00000001FF
